{
  "_format": "hh-sol-artifact-1",
  "contractName": "CryptoChitahs",
  "sourceName": "contracts/CryptoChitahs.sol",
  "abi": [
    {
      "inputs": [
        {
          "internalType": "string",
          "name": "_name",
          "type": "string"
        },
        {
          "internalType": "string",
          "name": "_symbol",
          "type": "string"
        },
        {
          "internalType": "uint256",
          "name": "_totalSupply",
          "type": "uint256"
        },
        {
          "internalType": "address",
          "name": "_owner",
          "type": "address"
        },
        {
          "internalType": "address",
          "name": "_minter",
          "type": "address"
        },
        {
          "internalType": "string",
          "name": "_baseUri",
          "type": "string"
        }
      ],
      "stateMutability": "nonpayable",
      "type": "constructor"
    },
    {
      "anonymous": false,
      "inputs": [
        {
          "indexed": true,
          "internalType": "address",
          "name": "owner",
          "type": "address"
        },
        {
          "indexed": true,
          "internalType": "address",
          "name": "approved",
          "type": "address"
        },
        {
          "indexed": true,
          "internalType": "uint256",
          "name": "tokenId",
          "type": "uint256"
        }
      ],
      "name": "Approval",
      "type": "event"
    },
    {
      "anonymous": false,
      "inputs": [
        {
          "indexed": true,
          "internalType": "address",
          "name": "owner",
          "type": "address"
        },
        {
          "indexed": true,
          "internalType": "address",
          "name": "operator",
          "type": "address"
        },
        {
          "indexed": false,
          "internalType": "bool",
          "name": "approved",
          "type": "bool"
        }
      ],
      "name": "ApprovalForAll",
      "type": "event"
    },
    {
      "anonymous": false,
      "inputs": [
        {
          "indexed": true,
          "internalType": "address",
          "name": "from",
          "type": "address"
        },
        {
          "indexed": true,
          "internalType": "address",
          "name": "to",
          "type": "address"
        },
        {
          "indexed": true,
          "internalType": "uint256",
          "name": "tokenId",
          "type": "uint256"
        }
      ],
      "name": "Transfer",
      "type": "event"
    },
    {
      "inputs": [
        {
          "internalType": "address",
          "name": "to",
          "type": "address"
        },
        {
          "internalType": "uint256",
          "name": "tokenId",
          "type": "uint256"
        }
      ],
      "name": "approve",
      "outputs": [],
      "stateMutability": "nonpayable",
      "type": "function"
    },
    {
      "inputs": [
        {
          "internalType": "address",
          "name": "owner",
          "type": "address"
        }
      ],
      "name": "balanceOf",
      "outputs": [
        {
          "internalType": "uint256",
          "name": "",
          "type": "uint256"
        }
      ],
      "stateMutability": "view",
      "type": "function"
    },
    {
      "inputs": [],
      "name": "baseURI",
      "outputs": [
        {
          "internalType": "string",
          "name": "",
          "type": "string"
        }
      ],
      "stateMutability": "view",
      "type": "function"
    },
    {
      "inputs": [
        {
          "internalType": "uint256",
          "name": "tokenId",
          "type": "uint256"
        }
      ],
      "name": "getApproved",
      "outputs": [
        {
          "internalType": "address",
          "name": "",
          "type": "address"
        }
      ],
      "stateMutability": "view",
      "type": "function"
    },
    {
      "inputs": [
        {
          "internalType": "address",
          "name": "owner",
          "type": "address"
        },
        {
          "internalType": "address",
          "name": "operator",
          "type": "address"
        }
      ],
      "name": "isApprovedForAll",
      "outputs": [
        {
          "internalType": "bool",
          "name": "",
          "type": "bool"
        }
      ],
      "stateMutability": "view",
      "type": "function"
    },
    {
      "inputs": [
        {
          "internalType": "address",
          "name": "to",
          "type": "address"
        },
        {
          "internalType": "uint256",
          "name": "tokenId",
          "type": "uint256"
        }
      ],
      "name": "mint",
      "outputs": [
        {
          "internalType": "uint256",
          "name": "",
          "type": "uint256"
        }
      ],
      "stateMutability": "nonpayable",
      "type": "function"
    },
    {
      "inputs": [],
      "name": "minter",
      "outputs": [
        {
          "internalType": "address",
          "name": "",
          "type": "address"
        }
      ],
      "stateMutability": "view",
      "type": "function"
    },
    {
      "inputs": [],
      "name": "name",
      "outputs": [
        {
          "internalType": "string",
          "name": "",
          "type": "string"
        }
      ],
      "stateMutability": "view",
      "type": "function"
    },
    {
      "inputs": [],
      "name": "owner",
      "outputs": [
        {
          "internalType": "address",
          "name": "",
          "type": "address"
        }
      ],
      "stateMutability": "view",
      "type": "function"
    },
    {
      "inputs": [
        {
          "internalType": "uint256",
          "name": "tokenId",
          "type": "uint256"
        }
      ],
      "name": "ownerOf",
      "outputs": [
        {
          "internalType": "address",
          "name": "",
          "type": "address"
        }
      ],
      "stateMutability": "view",
      "type": "function"
    },
    {
      "inputs": [
        {
          "internalType": "address",
          "name": "from",
          "type": "address"
        },
        {
          "internalType": "address",
          "name": "to",
          "type": "address"
        },
        {
          "internalType": "uint256",
          "name": "tokenId",
          "type": "uint256"
        }
      ],
      "name": "safeTransferFrom",
      "outputs": [],
      "stateMutability": "nonpayable",
      "type": "function"
    },
    {
      "inputs": [
        {
          "internalType": "address",
          "name": "from",
          "type": "address"
        },
        {
          "internalType": "address",
          "name": "to",
          "type": "address"
        },
        {
          "internalType": "uint256",
          "name": "tokenId",
          "type": "uint256"
        },
        {
          "internalType": "bytes",
          "name": "_data",
          "type": "bytes"
        }
      ],
      "name": "safeTransferFrom",
      "outputs": [],
      "stateMutability": "nonpayable",
      "type": "function"
    },
    {
      "inputs": [
        {
          "internalType": "address",
          "name": "operator",
          "type": "address"
        },
        {
          "internalType": "bool",
          "name": "approved",
          "type": "bool"
        }
      ],
      "name": "setApprovalForAll",
      "outputs": [],
      "stateMutability": "nonpayable",
      "type": "function"
    },
    {
      "inputs": [
        {
          "internalType": "address",
          "name": "_minter",
          "type": "address"
        }
      ],
      "name": "setMinter",
      "outputs": [
        {
          "internalType": "bool",
          "name": "",
          "type": "bool"
        }
      ],
      "stateMutability": "nonpayable",
      "type": "function"
    },
    {
      "inputs": [
        {
          "internalType": "address",
          "name": "_owner",
          "type": "address"
        }
      ],
      "name": "setOwner",
      "outputs": [
        {
          "internalType": "bool",
          "name": "",
          "type": "bool"
        }
      ],
      "stateMutability": "nonpayable",
      "type": "function"
    },
    {
      "inputs": [
        {
          "internalType": "bytes4",
          "name": "interfaceId",
          "type": "bytes4"
        }
      ],
      "name": "supportsInterface",
      "outputs": [
        {
          "internalType": "bool",
          "name": "",
          "type": "bool"
        }
      ],
      "stateMutability": "view",
      "type": "function"
    },
    {
      "inputs": [],
      "name": "symbol",
      "outputs": [
        {
          "internalType": "string",
          "name": "",
          "type": "string"
        }
      ],
      "stateMutability": "view",
      "type": "function"
    },
    {
      "inputs": [
        {
          "internalType": "uint256",
          "name": "tokenId",
          "type": "uint256"
        }
      ],
      "name": "tokenURI",
      "outputs": [
        {
          "internalType": "string",
          "name": "",
          "type": "string"
        }
      ],
      "stateMutability": "view",
      "type": "function"
    },
    {
      "inputs": [],
      "name": "totalSupply",
      "outputs": [
        {
          "internalType": "uint256",
          "name": "",
          "type": "uint256"
        }
      ],
      "stateMutability": "view",
      "type": "function"
    },
    {
      "inputs": [
        {
          "internalType": "address",
          "name": "from",
          "type": "address"
        },
        {
          "internalType": "address",
          "name": "to",
          "type": "address"
        },
        {
          "internalType": "uint256",
          "name": "tokenId",
          "type": "uint256"
        }
      ],
      "name": "transferFrom",
      "outputs": [],
      "stateMutability": "nonpayable",
      "type": "function"
    }
  ],
  "bytecode": "0x60806040523480156200001157600080fd5b5060405162001fad38038062001fad833981016040819052620000349162000233565b8551869086906200004d906000906020850190620000bd565b50805162000063906001906020840190620000bd565b5050506007849055600980546001600160a01b038086166001600160a01b03199283161790925560088054928516929091169190911790558051620000b090600a906020840190620000bd565b5050505050505062000341565b828054620000cb90620002ee565b90600052602060002090601f016020900481019282620000ef57600085556200013a565b82601f106200010a57805160ff19168380011785556200013a565b828001600101855582156200013a579182015b828111156200013a5782518255916020019190600101906200011d565b50620001489291506200014c565b5090565b5b808211156200014857600081556001016200014d565b80516001600160a01b03811681146200017b57600080fd5b919050565b600082601f83011262000191578081fd5b81516001600160401b0380821115620001ae57620001ae6200032b565b604051601f8301601f19908116603f01168101908282118183101715620001d957620001d96200032b565b81604052838152602092508683858801011115620001f5578485fd5b8491505b83821015620002185785820183015181830184015290820190620001f9565b838211156200022957848385830101525b9695505050505050565b60008060008060008060c087890312156200024c578182fd5b86516001600160401b038082111562000263578384fd5b620002718a838b0162000180565b9750602089015191508082111562000287578384fd5b620002958a838b0162000180565b965060408901519550620002ac60608a0162000163565b9450620002bc60808a0162000163565b935060a0890151915080821115620002d2578283fd5b50620002e189828a0162000180565b9150509295509295509295565b600181811c908216806200030357607f821691505b602082108114156200032557634e487b7160e01b600052602260045260246000fd5b50919050565b634e487b7160e01b600052604160045260246000fd5b611c5c80620003516000396000f3fe608060405234801561001057600080fd5b506004361061016c5760003560e01c80636352211e116100cd578063a22cb46511610081578063c87b56dd11610066578063c87b56dd146102d3578063e985e9c5146102e6578063fca3b5aa1461032257600080fd5b8063a22cb465146102ad578063b88d4fde146102c057600080fd5b806370a08231116100b257806370a082311461027f5780638da5cb5b1461029257806395d89b41146102a557600080fd5b80636352211e146102645780636c0360eb1461027757600080fd5b806313af40351161012457806323b872dd1161010957806323b872dd1461022b57806340c10f191461023e57806342842e0e1461025157600080fd5b806313af40351461020157806318160ddd1461021457600080fd5b8063075461721161015557806307546172146101ae578063081812fc146101d9578063095ea7b3146101ec57600080fd5b806301ffc9a71461017157806306fdde0314610199575b600080fd5b61018461017f366004611978565b610335565b60405190151581526020015b60405180910390f35b6101a16103d2565b6040516101909190611ae5565b6008546101c1906001600160a01b031681565b6040516001600160a01b039091168152602001610190565b6101c16101e73660046119b0565b610464565b6101ff6101fa36600461194f565b6104fe565b005b61018461020f3660046117b9565b610630565b61021d60075481565b604051908152602001610190565b6101ff610239366004611805565b6106bc565b61021d61024c36600461194f565b610743565b6101ff61025f366004611805565b610862565b6101c16102723660046119b0565b61087d565b6101a1610908565b61021d61028d3660046117b9565b610996565b6009546101c1906001600160a01b031681565b6101a1610a30565b6101ff6102bb366004611915565b610a3f565b6101ff6102ce366004611840565b610a4e565b6101a16102e13660046119b0565b610adc565b6101846102f43660046117d3565b6001600160a01b03918216600090815260056020908152604080832093909416825291909152205460ff1690565b6101846103303660046117b9565b610c62565b60006001600160e01b031982167f80ac58cd00000000000000000000000000000000000000000000000000000000148061039857506001600160e01b031982167f5b5e139f00000000000000000000000000000000000000000000000000000000145b806103cc57507f01ffc9a7000000000000000000000000000000000000000000000000000000006001600160e01b03198316145b92915050565b6060600080546103e190611b67565b80601f016020809104026020016040519081016040528092919081815260200182805461040d90611b67565b801561045a5780601f1061042f5761010080835404028352916020019161045a565b820191906000526020600020905b81548152906001019060200180831161043d57829003601f168201915b5050505050905090565b6000818152600260205260408120546001600160a01b03166104e25760405162461bcd60e51b815260206004820152602c60248201527f4552433732313a20617070726f76656420717565727920666f72206e6f6e657860448201526b34b9ba32b73a103a37b5b2b760a11b60648201526084015b60405180910390fd5b506000908152600460205260409020546001600160a01b031690565b60006105098261087d565b9050806001600160a01b0316836001600160a01b031614156105935760405162461bcd60e51b815260206004820152602160248201527f4552433732313a20617070726f76616c20746f2063757272656e74206f776e6560448201527f720000000000000000000000000000000000000000000000000000000000000060648201526084016104d9565b336001600160a01b03821614806105af57506105af81336102f4565b6106215760405162461bcd60e51b815260206004820152603860248201527f4552433732313a20617070726f76652063616c6c6572206973206e6f74206f7760448201527f6e6572206e6f7220617070726f76656420666f7220616c6c000000000000000060648201526084016104d9565b61062b8383610cef565b505050565b6009546000906001600160a01b031633146106985760405162461bcd60e51b815260206004820152602260248201527f4f6e6c79206f776e65722063616e20706572666f726d2074686973206163746960448201526137b760f11b60648201526084016104d9565b50600980546001600160a01b0319166001600160a01b03831617905560015b919050565b6106c63382610d5d565b6107385760405162461bcd60e51b815260206004820152603160248201527f4552433732313a207472616e736665722063616c6c6572206973206e6f74206f60448201527f776e6572206e6f7220617070726f76656400000000000000000000000000000060648201526084016104d9565b61062b838383610e50565b6008546000906001600160a01b031633146107c65760405162461bcd60e51b815260206004820152602360248201527f4f6e6c79206d696e7465722063616e20706572666f726d20746869732061637460448201527f696f6e000000000000000000000000000000000000000000000000000000000060648201526084016104d9565b6000821180156107d857506007548211155b6107e360075461101d565b6040516020016107f39190611a64565b604051602081830303815290604052906108205760405162461bcd60e51b81526004016104d99190611ae5565b5061082b838361116b565b61085c826108388461101d565b6040516020016108489190611a23565b6040516020818303038152906040526112ad565b50919050565b61062b83838360405180602001604052806000815250610a4e565b6000818152600260205260408120546001600160a01b0316806103cc5760405162461bcd60e51b815260206004820152602960248201527f4552433732313a206f776e657220717565727920666f72206e6f6e657869737460448201527f656e7420746f6b656e000000000000000000000000000000000000000000000060648201526084016104d9565b600a805461091590611b67565b80601f016020809104026020016040519081016040528092919081815260200182805461094190611b67565b801561098e5780601f106109635761010080835404028352916020019161098e565b820191906000526020600020905b81548152906001019060200180831161097157829003601f168201915b505050505081565b60006001600160a01b038216610a145760405162461bcd60e51b815260206004820152602a60248201527f4552433732313a2062616c616e636520717565727920666f7220746865207a6560448201527f726f20616464726573730000000000000000000000000000000000000000000060648201526084016104d9565b506001600160a01b031660009081526003602052604090205490565b6060600180546103e190611b67565b610a4a338383611356565b5050565b610a583383610d5d565b610aca5760405162461bcd60e51b815260206004820152603160248201527f4552433732313a207472616e736665722063616c6c6572206973206e6f74206f60448201527f776e6572206e6f7220617070726f76656400000000000000000000000000000060648201526084016104d9565b610ad684848484611425565b50505050565b6000818152600260205260409020546060906001600160a01b0316610b695760405162461bcd60e51b815260206004820152603160248201527f45524337323155524953746f726167653a2055524920717565727920666f722060448201527f6e6f6e6578697374656e7420746f6b656e00000000000000000000000000000060648201526084016104d9565b60008281526006602052604081208054610b8290611b67565b80601f0160208091040260200160405190810160405280929190818152602001828054610bae90611b67565b8015610bfb5780601f10610bd057610100808354040283529160200191610bfb565b820191906000526020600020905b815481529060010190602001808311610bde57829003601f168201915b505050505090506000610c0c6114ae565b9050805160001415610c1f575092915050565b815115610c51578082604051602001610c399291906119f4565b60405160208183030381529060405292505050919050565b610c5a846114bd565b949350505050565b6009546000906001600160a01b03163314610cca5760405162461bcd60e51b815260206004820152602260248201527f4f6e6c79206f776e65722063616e20706572666f726d2074686973206163746960448201526137b760f11b60648201526084016104d9565b50600880546001600160a01b0383166001600160a01b03199091161790556001919050565b600081815260046020526040902080546001600160a01b0319166001600160a01b0384169081179091558190610d248261087d565b6001600160a01b03167f8c5be1e5ebec7d5bd14f71427d1e84f3dd0314c0f7b2291e5b200ac8c7c3b92560405160405180910390a45050565b6000818152600260205260408120546001600160a01b0316610dd65760405162461bcd60e51b815260206004820152602c60248201527f4552433732313a206f70657261746f7220717565727920666f72206e6f6e657860448201526b34b9ba32b73a103a37b5b2b760a11b60648201526084016104d9565b6000610de18361087d565b9050806001600160a01b0316846001600160a01b03161480610e1c5750836001600160a01b0316610e1184610464565b6001600160a01b0316145b80610c5a57506001600160a01b0380821660009081526005602090815260408083209388168352929052205460ff16610c5a565b826001600160a01b0316610e638261087d565b6001600160a01b031614610edf5760405162461bcd60e51b815260206004820152602560248201527f4552433732313a207472616e736665722066726f6d20696e636f72726563742060448201527f6f776e657200000000000000000000000000000000000000000000000000000060648201526084016104d9565b6001600160a01b038216610f5a5760405162461bcd60e51b8152602060048201526024808201527f4552433732313a207472616e7366657220746f20746865207a65726f2061646460448201527f726573730000000000000000000000000000000000000000000000000000000060648201526084016104d9565b610f65600082610cef565b6001600160a01b0383166000908152600360205260408120805460019290610f8e908490611b24565b90915550506001600160a01b0382166000908152600360205260408120805460019290610fbc908490611af8565b909155505060008181526002602052604080822080546001600160a01b0319166001600160a01b0386811691821790925591518493918716917fddf252ad1be2c89b69c2b068fc378daa952ba7f163c4a11628f55a4df523b3ef91a4505050565b60608161105d57505060408051808201909152600181527f3000000000000000000000000000000000000000000000000000000000000000602082015290565b8160005b8115611087578061107181611b9c565b91506110809050600a83611b10565b9150611061565b60008167ffffffffffffffff8111156110b057634e487b7160e01b600052604160045260246000fd5b6040519080825280601f01601f1916602001820160405280156110da576020820181803683370190505b5090505b8415610c5a576110ef600183611b24565b91506110fc600a86611bb7565b611107906030611af8565b60f81b81838151811061112a57634e487b7160e01b600052603260045260246000fd5b60200101907effffffffffffffffffffffffffffffffffffffffffffffffffffffffffffff1916908160001a905350611164600a86611b10565b94506110de565b6001600160a01b0382166111c15760405162461bcd60e51b815260206004820181905260248201527f4552433732313a206d696e7420746f20746865207a65726f206164647265737360448201526064016104d9565b6000818152600260205260409020546001600160a01b0316156112265760405162461bcd60e51b815260206004820152601c60248201527f4552433732313a20746f6b656e20616c7265616479206d696e7465640000000060448201526064016104d9565b6001600160a01b038216600090815260036020526040812080546001929061124f908490611af8565b909155505060008181526002602052604080822080546001600160a01b0319166001600160a01b03861690811790915590518392907fddf252ad1be2c89b69c2b068fc378daa952ba7f163c4a11628f55a4df523b3ef908290a45050565b6000828152600260205260409020546001600160a01b03166113375760405162461bcd60e51b815260206004820152602e60248201527f45524337323155524953746f726167653a2055524920736574206f66206e6f6e60448201527f6578697374656e7420746f6b656e00000000000000000000000000000000000060648201526084016104d9565b6000828152600660209081526040909120825161062b92840190611709565b816001600160a01b0316836001600160a01b031614156113b85760405162461bcd60e51b815260206004820152601960248201527f4552433732313a20617070726f766520746f2063616c6c65720000000000000060448201526064016104d9565b6001600160a01b03838116600081815260056020908152604080832094871680845294825291829020805460ff191686151590811790915591519182527f17307eab39ab6107e8899845ad3d59bd9653f200f220920489ca2b5937696c31910160405180910390a3505050565b611430848484610e50565b61143c848484846115a6565b610ad65760405162461bcd60e51b815260206004820152603260248201527f4552433732313a207472616e7366657220746f206e6f6e20455243373231526560448201527f63656976657220696d706c656d656e746572000000000000000000000000000060648201526084016104d9565b6060600a80546103e190611b67565b6000818152600260205260409020546060906001600160a01b031661154a5760405162461bcd60e51b815260206004820152602f60248201527f4552433732314d657461646174613a2055524920717565727920666f72206e6f60448201527f6e6578697374656e7420746f6b656e000000000000000000000000000000000060648201526084016104d9565b60006115546114ae565b90506000815111611574576040518060200160405280600081525061159f565b8061157e8461101d565b60405160200161158f9291906119f4565b6040516020818303038152906040525b9392505050565b60006001600160a01b0384163b156116fe57604051630a85bd0160e11b81526001600160a01b0385169063150b7a02906115ea903390899088908890600401611aa9565b602060405180830381600087803b15801561160457600080fd5b505af1925050508015611634575060408051601f3d908101601f1916820190925261163191810190611994565b60015b6116e4573d808015611662576040519150601f19603f3d011682016040523d82523d6000602084013e611667565b606091505b5080516116dc5760405162461bcd60e51b815260206004820152603260248201527f4552433732313a207472616e7366657220746f206e6f6e20455243373231526560448201527f63656976657220696d706c656d656e746572000000000000000000000000000060648201526084016104d9565b805181602001fd5b6001600160e01b031916630a85bd0160e11b149050610c5a565b506001949350505050565b82805461171590611b67565b90600052602060002090601f016020900481019282611737576000855561177d565b82601f1061175057805160ff191683800117855561177d565b8280016001018555821561177d579182015b8281111561177d578251825591602001919060010190611762565b5061178992915061178d565b5090565b5b80821115611789576000815560010161178e565b80356001600160a01b03811681146106b757600080fd5b6000602082840312156117ca578081fd5b61159f826117a2565b600080604083850312156117e5578081fd5b6117ee836117a2565b91506117fc602084016117a2565b90509250929050565b600080600060608486031215611819578081fd5b611822846117a2565b9250611830602085016117a2565b9150604084013590509250925092565b60008060008060808587031215611855578081fd5b61185e856117a2565b935061186c602086016117a2565b925060408501359150606085013567ffffffffffffffff8082111561188f578283fd5b818701915087601f8301126118a2578283fd5b8135818111156118b4576118b4611bf7565b604051601f8201601f19908116603f011681019083821181831017156118dc576118dc611bf7565b816040528281528a60208487010111156118f4578586fd5b82602086016020830137918201602001949094529598949750929550505050565b60008060408385031215611927578182fd5b611930836117a2565b915060208301358015158114611944578182fd5b809150509250929050565b60008060408385031215611961578182fd5b61196a836117a2565b946020939093013593505050565b600060208284031215611989578081fd5b813561159f81611c0d565b6000602082840312156119a5578081fd5b815161159f81611c0d565b6000602082840312156119c1578081fd5b5035919050565b600081518084526119e0816020860160208601611b3b565b601f01601f19169290920160200192915050565b60008351611a06818460208801611b3b565b835190830190611a1a818360208801611b3b565b01949350505050565b60008251611a35818460208701611b3b565b7f2e6a736f6e000000000000000000000000000000000000000000000000000000920191825250600501919050565b7f746f6b656e49642063616e206f6e6c79206265203e3d3120616e64203c3d0000815260008251611a9c81601e850160208701611b3b565b91909101601e0192915050565b60006001600160a01b03808716835280861660208401525083604083015260806060830152611adb60808301846119c8565b9695505050505050565b60208152600061159f60208301846119c8565b60008219821115611b0b57611b0b611bcb565b500190565b600082611b1f57611b1f611be1565b500490565b600082821015611b3657611b36611bcb565b500390565b60005b83811015611b56578181015183820152602001611b3e565b83811115610ad65750506000910152565b600181811c90821680611b7b57607f821691505b6020821081141561085c57634e487b7160e01b600052602260045260246000fd5b6000600019821415611bb057611bb0611bcb565b5060010190565b600082611bc657611bc6611be1565b500690565b634e487b7160e01b600052601160045260246000fd5b634e487b7160e01b600052601260045260246000fd5b634e487b7160e01b600052604160045260246000fd5b6001600160e01b031981168114611c2357600080fd5b5056fea2646970667358221220224971912af448f4a74538c63859f325dc563a29bcb9679f653e315d061b38b664736f6c63430008040033",
  "linkReferences": {},
  "deployedLinkReferences": {}
}