{
  "_format": "hh-sol-artifact-1",
  "contractName": "MarketPlace",
  "sourceName": "contracts/MarketPlace.sol",
  "abi": [
    {
      "inputs": [
        {
          "internalType": "address",
          "name": "_owner",
          "type": "address"
        },
        {
          "internalType": "address",
          "name": "_nftAddress",
          "type": "address"
        },
        {
          "internalType": "bool",
          "name": "_canMint",
          "type": "bool"
        },
        {
          "internalType": "uint256",
          "name": "_basePrice",
          "type": "uint256"
        }
      ],
      "stateMutability": "nonpayable",
      "type": "constructor"
    },
    {
      "inputs": [],
      "name": "basePrice",
      "outputs": [
        {
          "internalType": "uint256",
          "name": "",
          "type": "uint256"
        }
      ],
      "stateMutability": "view",
      "type": "function"
    },
    {
      "inputs": [
        {
          "internalType": "uint256",
          "name": "",
          "type": "uint256"
        }
      ],
      "name": "boostedPrice",
      "outputs": [
        {
          "internalType": "uint256",
          "name": "",
          "type": "uint256"
        }
      ],
      "stateMutability": "view",
      "type": "function"
    },
    {
      "inputs": [],
      "name": "canMint",
      "outputs": [
        {
          "internalType": "bool",
          "name": "",
          "type": "bool"
        }
      ],
      "stateMutability": "view",
      "type": "function"
    },
    {
      "inputs": [
        {
          "internalType": "uint256[]",
          "name": "_tokenIDs",
          "type": "uint256[]"
        }
      ],
      "name": "getBoostedPrice",
      "outputs": [
        {
          "internalType": "uint256[]",
          "name": "",
          "type": "uint256[]"
        }
      ],
      "stateMutability": "view",
      "type": "function"
    },
    {
      "inputs": [
        {
          "internalType": "uint256",
          "name": "tokenId",
          "type": "uint256"
        }
      ],
      "name": "mint",
      "outputs": [
        {
          "internalType": "bool",
          "name": "",
          "type": "bool"
        }
      ],
      "stateMutability": "payable",
      "type": "function"
    },
    {
      "inputs": [],
      "name": "nft",
      "outputs": [
        {
          "internalType": "contract CryptoChitahs",
          "name": "",
          "type": "address"
        }
      ],
      "stateMutability": "view",
      "type": "function"
    },
    {
      "inputs": [],
      "name": "owner",
      "outputs": [
        {
          "internalType": "address payable",
          "name": "",
          "type": "address"
        }
      ],
      "stateMutability": "view",
      "type": "function"
    },
    {
      "inputs": [
        {
          "internalType": "uint256",
          "name": "_price",
          "type": "uint256"
        }
      ],
      "name": "setBasePrice",
      "outputs": [],
      "stateMutability": "nonpayable",
      "type": "function"
    },
    {
      "inputs": [
        {
          "internalType": "uint256[]",
          "name": "_tokenIDs",
          "type": "uint256[]"
        },
        {
          "internalType": "uint256[]",
          "name": "_boostedPrices",
          "type": "uint256[]"
        }
      ],
      "name": "setBoostedPrice",
      "outputs": [],
      "stateMutability": "nonpayable",
      "type": "function"
    },
    {
      "inputs": [
        {
          "internalType": "bool",
          "name": "_canMint",
          "type": "bool"
        }
      ],
      "name": "setMinting",
      "outputs": [],
      "stateMutability": "nonpayable",
      "type": "function"
    },
    {
      "inputs": [
        {
          "internalType": "address",
          "name": "_owner",
          "type": "address"
        }
      ],
      "name": "setOwner",
      "outputs": [],
      "stateMutability": "nonpayable",
      "type": "function"
    },
    {
      "inputs": [],
      "name": "totalMinted",
      "outputs": [
        {
          "internalType": "uint256",
          "name": "",
          "type": "uint256"
        }
      ],
      "stateMutability": "view",
      "type": "function"
    }
  ],
  "bytecode": "0x608060405234801561001057600080fd5b5060405161112138038061112183398101604081905261002f91610096565b600080546001600160a01b039586166001600160a01b031990911617905560018054921515600160a01b026001600160a81b03199093169390941692909217179091556003556100e6565b80516001600160a01b038116811461009157600080fd5b919050565b600080600080608085870312156100ab578384fd5b6100b48561007a565b93506100c26020860161007a565b9250604085015180151581146100d6578283fd5b6060959095015193969295505050565b61102c806100f56000396000f3fe6080604052600436106100c75760003560e01c8063a0712d6811610074578063beb9716d1161004e578063beb9716d14610230578063c7876ea414610251578063de4b32621461026757600080fd5b8063a0712d68146101d7578063a2309ff8146101fa578063b4c7f0661461021057600080fd5b806336f4be9a116100a557806336f4be9a1461014457806347ccca021461017f5780638da5cb5b146101b757600080fd5b806313af4035146100cc57806314cbae14146100ee578063261a55b51461010e575b600080fd5b3480156100d857600080fd5b506100ec6100e7366004610d22565b610287565b005b3480156100fa57600080fd5b506100ec610109366004610d83565b61032b565b34801561011a57600080fd5b5061012e610129366004610d50565b6105cc565b60405161013b9190610e9f565b60405180910390f35b34801561015057600080fd5b5061017161015f366004610e04565b60046020526000908152604090205481565b60405190815260200161013b565b34801561018b57600080fd5b5060015461019f906001600160a01b031681565b6040516001600160a01b03909116815260200161013b565b3480156101c357600080fd5b5060005461019f906001600160a01b031681565b6101ea6101e5366004610e04565b610852565b604051901515815260200161013b565b34801561020657600080fd5b5061017160025481565b34801561021c57600080fd5b506100ec61022b366004610de4565b610a26565b34801561023c57600080fd5b506001546101ea90600160a01b900460ff1681565b34801561025d57600080fd5b5061017160035481565b34801561027357600080fd5b506100ec610282366004610e04565b610ac4565b6000546001600160a01b031633146102f15760405162461bcd60e51b815260206004820152602260248201527f4f6e6c79206f776e65722063616e20706572666f726d2074686973206163746960448201526137b760f11b60648201526084015b60405180910390fd5b600080547fffffffffffffffffffffffff0000000000000000000000000000000000000000166001600160a01b0392909216919091179055565b6000546001600160a01b031633146103905760405162461bcd60e51b815260206004820152602260248201527f4f6e6c79206f776e65722063616e20706572666f726d2074686973206163746960448201526137b760f11b60648201526084016102e8565b80518251146104075760405162461bcd60e51b815260206004820152603560248201527f746f6b656e49447320616e6420626f6f7374656450726963657320617272617960448201527f206c656e67746820646f65736e2774206d61746368000000000000000000000060648201526084016102e8565b600154604080516318160ddd60e01b815290516000926001600160a01b0316916318160ddd916004808301926020929190829003018186803b15801561044c57600080fd5b505afa158015610460573d6000803e3d6000fd5b505050506040513d601f19601f820116820180604052508101906104849190610e1c565b905080835111156104e95760405162461bcd60e51b815260206004820152602960248201527f746f6b656e494420617272617920697320626967676572207468616e20746f74604482015268616c20737570706c7960b81b60648201526084016102e8565b60005b83518110156105c657600084828151811061051757634e487b7160e01b600052603260045260246000fd5b60200260200101519050600084838151811061054357634e487b7160e01b600052603260045260246000fd5b6020026020010151905060008211801561055d5750838211155b61056684610b2e565b6040516020016105769190610e34565b604051602081830303815290604052906105a35760405162461bcd60e51b81526004016102e89190610ee3565b5060009182526004602052604090912055806105be81610f85565b9150506104ec565b50505050565b6000546060906001600160a01b031633146106345760405162461bcd60e51b815260206004820152602260248201527f4f6e6c79206f776e65722063616e20706572666f726d2074686973206163746960448201526137b760f11b60648201526084016102e8565b600154604080516318160ddd60e01b815290516000926001600160a01b0316916318160ddd916004808301926020929190829003018186803b15801561067957600080fd5b505afa15801561068d573d6000803e3d6000fd5b505050506040513d601f19601f820116820180604052508101906106b19190610e1c565b905080835111156107165760405162461bcd60e51b815260206004820152602960248201527f746f6b656e494420617272617920697320626967676572207468616e20746f74604482015268616c20737570706c7960b81b60648201526084016102e8565b6000835167ffffffffffffffff81111561074057634e487b7160e01b600052604160045260246000fd5b604051908082528060200260200182016040528015610769578160200160208202803683370190505b50905060005b845181101561084a57600085828151811061079a57634e487b7160e01b600052603260045260246000fd5b602002602001015190506000811180156107b45750838111155b6107bd83610b2e565b6040516020016107cd9190610e34565b604051602081830303815290604052906107fa5760405162461bcd60e51b81526004016102e89190610ee3565b50600081815260046020526040902054835184908490811061082c57634e487b7160e01b600052603260045260246000fd5b6020908102919091010152508061084281610f85565b91505061076f565b509392505050565b600154600090600160a01b900460ff166108ae5760405162461bcd60e51b815260206004820152601660248201527f4d696e74696e67206973206e6f7420737461727465640000000000000000000060448201526064016102e8565b6000828152600460205260408120546003546108ca9190610f16565b905080341461091b5760405162461bcd60e51b815260206004820152600f60248201527f496e636f7272656374207072696365000000000000000000000000000000000060448201526064016102e8565b6001546040517f40c10f19000000000000000000000000000000000000000000000000000000008152336004820152602481018590526001600160a01b03909116906340c10f1990604401602060405180830381600087803b15801561098057600080fd5b505af1158015610994573d6000803e3d6000fd5b505050506040513d601f19601f820116820180604052508101906109b89190610e1c565b50600080546040516001600160a01b03909116913480156108fc02929091818181858888f193505050501580156109f3573d6000803e3d6000fd5b5060008381526004602052604081208190556002805460019290610a18908490610f16565b909155506001949350505050565b6000546001600160a01b03163314610a8b5760405162461bcd60e51b815260206004820152602260248201527f4f6e6c79206f776e65722063616e20706572666f726d2074686973206163746960448201526137b760f11b60648201526084016102e8565b60018054911515600160a01b027fffffffffffffffffffffff00ffffffffffffffffffffffffffffffffffffffff909216919091179055565b6000546001600160a01b03163314610b295760405162461bcd60e51b815260206004820152602260248201527f4f6e6c79206f776e65722063616e20706572666f726d2074686973206163746960448201526137b760f11b60648201526084016102e8565b600355565b606081610b6e57505060408051808201909152600181527f3000000000000000000000000000000000000000000000000000000000000000602082015290565b8160005b8115610b985780610b8281610f85565b9150610b919050600a83610f2e565b9150610b72565b60008167ffffffffffffffff811115610bc157634e487b7160e01b600052604160045260246000fd5b6040519080825280601f01601f191660200182016040528015610beb576020820181803683370190505b5090505b8415610c7c57610c00600183610f42565b9150610c0d600a86610fa0565b610c18906030610f16565b60f81b818381518110610c3b57634e487b7160e01b600052603260045260246000fd5b60200101907effffffffffffffffffffffffffffffffffffffffffffffffffffffffffffff1916908160001a905350610c75600a86610f2e565b9450610bef565b949350505050565b600082601f830112610c94578081fd5b8135602067ffffffffffffffff80831115610cb157610cb1610fe0565b8260051b604051601f19603f83011681018181108482111715610cd657610cd6610fe0565b60405284815283810192508684018288018501891015610cf4578687fd5b8692505b85831015610d16578035845292840192600192909201918401610cf8565b50979650505050505050565b600060208284031215610d33578081fd5b81356001600160a01b0381168114610d49578182fd5b9392505050565b600060208284031215610d61578081fd5b813567ffffffffffffffff811115610d77578182fd5b610c7c84828501610c84565b60008060408385031215610d95578081fd5b823567ffffffffffffffff80821115610dac578283fd5b610db886838701610c84565b93506020850135915080821115610dcd578283fd5b50610dda85828601610c84565b9150509250929050565b600060208284031215610df5578081fd5b81358015158114610d49578182fd5b600060208284031215610e15578081fd5b5035919050565b600060208284031215610e2d578081fd5b5051919050565b7f746f6b656e496420617272617920636f6e7461696e732077726f6e6720746f6b81527f656e20696420617420696e646578206f66200000000000000000000000000000602082015260008251610e92816032850160208701610f59565b9190910160320192915050565b6020808252825182820181905260009190848201906040850190845b81811015610ed757835183529284019291840191600101610ebb565b50909695505050505050565b6020815260008251806020840152610f02816040850160208701610f59565b601f01601f19169190910160400192915050565b60008219821115610f2957610f29610fb4565b500190565b600082610f3d57610f3d610fca565b500490565b600082821015610f5457610f54610fb4565b500390565b60005b83811015610f74578181015183820152602001610f5c565b838111156105c65750506000910152565b6000600019821415610f9957610f99610fb4565b5060010190565b600082610faf57610faf610fca565b500690565b634e487b7160e01b600052601160045260246000fd5b634e487b7160e01b600052601260045260246000fd5b634e487b7160e01b600052604160045260246000fdfea26469706673582212202cb2ef18ae1e164575e856249ac4d80a92848b005b118d52728758bd1a07314264736f6c63430008040033",
  "linkReferences": {},
  "deployedLinkReferences": {}
}