{
  "_format": "hh-sol-artifact-1",
  "contractName": "MarketPlace",
  "sourceName": "contracts/MarketPlace.sol",
  "abi": [
    {
      "inputs": [
        {
          "internalType": "address",
          "name": "_owner",
          "type": "address"
        },
        {
          "internalType": "address",
          "name": "_nftAddress",
          "type": "address"
        },
        {
          "internalType": "bool",
          "name": "_canMint",
          "type": "bool"
        },
        {
          "internalType": "uint256",
          "name": "_basePrice",
          "type": "uint256"
        }
      ],
      "stateMutability": "nonpayable",
      "type": "constructor"
    },
    {
      "inputs": [],
      "name": "basePrice",
      "outputs": [
        {
          "internalType": "uint256",
          "name": "",
          "type": "uint256"
        }
      ],
      "stateMutability": "view",
      "type": "function"
    },
    {
      "inputs": [
        {
          "internalType": "uint256",
          "name": "",
          "type": "uint256"
        }
      ],
      "name": "boostedPrice",
      "outputs": [
        {
          "internalType": "uint256",
          "name": "",
          "type": "uint256"
        }
      ],
      "stateMutability": "view",
      "type": "function"
    },
    {
      "inputs": [],
      "name": "canMint",
      "outputs": [
        {
          "internalType": "bool",
          "name": "",
          "type": "bool"
        }
      ],
      "stateMutability": "view",
      "type": "function"
    },
    {
      "inputs": [
        {
          "internalType": "uint256[]",
          "name": "_tokenIDs",
          "type": "uint256[]"
        }
      ],
      "name": "getPrices",
      "outputs": [
        {
          "internalType": "uint256[]",
          "name": "",
          "type": "uint256[]"
        }
      ],
      "stateMutability": "view",
      "type": "function"
    },
    {
      "inputs": [
        {
          "internalType": "uint256",
          "name": "tokenId",
          "type": "uint256"
        }
      ],
      "name": "mint",
      "outputs": [
        {
          "internalType": "bool",
          "name": "",
          "type": "bool"
        }
      ],
      "stateMutability": "payable",
      "type": "function"
    },
    {
      "inputs": [
        {
          "internalType": "uint256",
          "name": "",
          "type": "uint256"
        }
      ],
      "name": "mintedTokens",
      "outputs": [
        {
          "internalType": "bool",
          "name": "",
          "type": "bool"
        }
      ],
      "stateMutability": "view",
      "type": "function"
    },
    {
      "inputs": [],
      "name": "nft",
      "outputs": [
        {
          "internalType": "contract CryptoChitahs",
          "name": "",
          "type": "address"
        }
      ],
      "stateMutability": "view",
      "type": "function"
    },
    {
      "inputs": [],
      "name": "owner",
      "outputs": [
        {
          "internalType": "address payable",
          "name": "",
          "type": "address"
        }
      ],
      "stateMutability": "view",
      "type": "function"
    },
    {
      "inputs": [
        {
          "internalType": "uint256",
          "name": "_price",
          "type": "uint256"
        }
      ],
      "name": "setBasePrice",
      "outputs": [],
      "stateMutability": "nonpayable",
      "type": "function"
    },
    {
      "inputs": [
        {
          "internalType": "uint256[]",
          "name": "_tokenIDs",
          "type": "uint256[]"
        },
        {
          "internalType": "uint256[]",
          "name": "_boostedPrices",
          "type": "uint256[]"
        }
      ],
      "name": "setBoostedPrice",
      "outputs": [],
      "stateMutability": "nonpayable",
      "type": "function"
    },
    {
      "inputs": [
        {
          "internalType": "uint256[]",
          "name": "_tokens",
          "type": "uint256[]"
        }
      ],
      "name": "setMintedTokens",
      "outputs": [],
      "stateMutability": "nonpayable",
      "type": "function"
    },
    {
      "inputs": [
        {
          "internalType": "bool",
          "name": "_canMint",
          "type": "bool"
        }
      ],
      "name": "setMinting",
      "outputs": [],
      "stateMutability": "nonpayable",
      "type": "function"
    },
    {
      "inputs": [
        {
          "internalType": "address",
          "name": "_owner",
          "type": "address"
        }
      ],
      "name": "setOwner",
      "outputs": [],
      "stateMutability": "nonpayable",
      "type": "function"
    },
    {
      "inputs": [],
      "name": "totalMinted",
      "outputs": [
        {
          "internalType": "uint256",
          "name": "",
          "type": "uint256"
        }
      ],
      "stateMutability": "view",
      "type": "function"
    }
  ],
  "bytecode": "0x608060405234801561001057600080fd5b5060405161129438038061129483398101604081905261002f91610096565b600080546001600160a01b039586166001600160a01b031990911617905560018054921515600160a01b026001600160a81b03199093169390941692909217179091556003556100e6565b80516001600160a01b038116811461009157600080fd5b919050565b600080600080608085870312156100ab578384fd5b6100b48561007a565b93506100c26020860161007a565b9250604085015180151581146100d6578283fd5b6060959095015193969295505050565b61119f806100f56000396000f3fe6080604052600436106100dd5760003560e01c80638da5cb5b1161007f578063b4c7f06611610059578063b4c7f06614610276578063beb9716d14610296578063c7876ea4146102b7578063de4b3262146102cd57600080fd5b80638da5cb5b1461022d578063a0712d681461024d578063a2309ff81461026057600080fd5b80631a14559f116100bb5780631a14559f1461015a57806336f4be9a1461017a57806347ccca02146101b55780637ef758d4146101ed57600080fd5b806309cb3a4e146100e257806313af40351461011857806314cbae141461013a575b600080fd5b3480156100ee57600080fd5b506101026100fd366004610ec3565b6102ed565b60405161010f9190611012565b60405180910390f35b34801561012457600080fd5b50610138610133366004610e95565b610579565b005b34801561014657600080fd5b50610138610155366004610ef6565b610618565b34801561016657600080fd5b50610138610175366004610ec3565b6108d2565b34801561018657600080fd5b506101a7610195366004610f77565b60046020526000908152604090205481565b60405190815260200161010f565b3480156101c157600080fd5b506001546101d5906001600160a01b031681565b6040516001600160a01b03909116815260200161010f565b3480156101f957600080fd5b5061021d610208366004610f77565b60056020526000908152604090205460ff1681565b604051901515815260200161010f565b34801561023957600080fd5b506000546101d5906001600160a01b031681565b61021d61025b366004610f77565b6109ad565b34801561026c57600080fd5b506101a760025481565b34801561028257600080fd5b50610138610291366004610f57565b610b99565b3480156102a257600080fd5b5060015461021d90600160a01b900460ff1681565b3480156102c357600080fd5b506101a760035481565b3480156102d957600080fd5b506101386102e8366004610f77565b610c37565b60606000600160009054906101000a90046001600160a01b03166001600160a01b03166318160ddd6040518163ffffffff1660e01b815260040160206040518083038186803b15801561033f57600080fd5b505afa158015610353573d6000803e3d6000fd5b505050506040513d601f19601f820116820180604052508101906103779190610f8f565b905080835111156103e15760405162461bcd60e51b815260206004820152602960248201527f746f6b656e494420617272617920697320626967676572207468616e20746f74604482015268616c20737570706c7960b81b60648201526084015b60405180910390fd5b6000835167ffffffffffffffff81111561040b57634e487b7160e01b600052604160045260246000fd5b604051908082528060200260200182016040528015610434578160200160208202803683370190505b50905060005b845181101561057157600085828151811061046557634e487b7160e01b600052603260045260246000fd5b6020026020010151905060008111801561047f5750838111155b61048883610ca1565b6040516020016104989190610fa7565b604051602081830303815290604052906104c55760405162461bcd60e51b81526004016103d89190611056565b5060008181526005602052604090205460ff1615156001141561051557600083838151811061050457634e487b7160e01b600052603260045260246000fd5b60200260200101818152505061055e565b6003546000828152600460205260409020546105319190611089565b83838151811061055157634e487b7160e01b600052603260045260246000fd5b6020026020010181815250505b5080610569816110f8565b91505061043a565b509392505050565b6000546001600160a01b031633146105de5760405162461bcd60e51b815260206004820152602260248201527f4f6e6c79206f776e65722063616e20706572666f726d2074686973206163746960448201526137b760f11b60648201526084016103d8565b600080547fffffffffffffffffffffffff0000000000000000000000000000000000000000166001600160a01b0392909216919091179055565b6000546001600160a01b0316331461067d5760405162461bcd60e51b815260206004820152602260248201527f4f6e6c79206f776e65722063616e20706572666f726d2074686973206163746960448201526137b760f11b60648201526084016103d8565b80518251146106f45760405162461bcd60e51b815260206004820152603560248201527f746f6b656e49447320616e6420626f6f7374656450726963657320617272617960448201527f206c656e67746820646f65736e2774206d61746368000000000000000000000060648201526084016103d8565b600154604080517f18160ddd00000000000000000000000000000000000000000000000000000000815290516000926001600160a01b0316916318160ddd916004808301926020929190829003018186803b15801561075257600080fd5b505afa158015610766573d6000803e3d6000fd5b505050506040513d601f19601f8201168201806040525081019061078a9190610f8f565b905080835111156107ef5760405162461bcd60e51b815260206004820152602960248201527f746f6b656e494420617272617920697320626967676572207468616e20746f74604482015268616c20737570706c7960b81b60648201526084016103d8565b60005b83518110156108cc57600084828151811061081d57634e487b7160e01b600052603260045260246000fd5b60200260200101519050600084838151811061084957634e487b7160e01b600052603260045260246000fd5b602002602001015190506000821180156108635750838211155b61086c84610ca1565b60405160200161087c9190610fa7565b604051602081830303815290604052906108a95760405162461bcd60e51b81526004016103d89190611056565b5060009182526004602052604090912055806108c4816110f8565b9150506107f2565b50505050565b6000546001600160a01b031633146109375760405162461bcd60e51b815260206004820152602260248201527f4f6e6c79206f776e65722063616e20706572666f726d2074686973206163746960448201526137b760f11b60648201526084016103d8565b60005b81518110156109a95760016005600084848151811061096957634e487b7160e01b600052603260045260246000fd5b6020026020010151815260200190815260200160002060006101000a81548160ff02191690831515021790555080806109a1906110f8565b91505061093a565b5050565b600154600090600160a01b900460ff16610a095760405162461bcd60e51b815260206004820152601660248201527f4d696e74696e67206973206e6f7420737461727465640000000000000000000060448201526064016103d8565b600082815260046020526040812054600354610a259190611089565b9050803414610a765760405162461bcd60e51b815260206004820152600f60248201527f496e636f7272656374207072696365000000000000000000000000000000000060448201526064016103d8565b6001546040517f40c10f19000000000000000000000000000000000000000000000000000000008152336004820152602481018590526001600160a01b03909116906340c10f1990604401602060405180830381600087803b158015610adb57600080fd5b505af1158015610aef573d6000803e3d6000fd5b505050506040513d601f19601f82011682018060405250810190610b139190610f8f565b50600080546040516001600160a01b03909116913480156108fc02929091818181858888f19350505050158015610b4e573d6000803e3d6000fd5b5060008381526004602052604081208190556002805460019290610b73908490611089565b909155505050600091825250600560205260409020805460ff1916600190811790915590565b6000546001600160a01b03163314610bfe5760405162461bcd60e51b815260206004820152602260248201527f4f6e6c79206f776e65722063616e20706572666f726d2074686973206163746960448201526137b760f11b60648201526084016103d8565b60018054911515600160a01b027fffffffffffffffffffffff00ffffffffffffffffffffffffffffffffffffffff909216919091179055565b6000546001600160a01b03163314610c9c5760405162461bcd60e51b815260206004820152602260248201527f4f6e6c79206f776e65722063616e20706572666f726d2074686973206163746960448201526137b760f11b60648201526084016103d8565b600355565b606081610ce157505060408051808201909152600181527f3000000000000000000000000000000000000000000000000000000000000000602082015290565b8160005b8115610d0b5780610cf5816110f8565b9150610d049050600a836110a1565b9150610ce5565b60008167ffffffffffffffff811115610d3457634e487b7160e01b600052604160045260246000fd5b6040519080825280601f01601f191660200182016040528015610d5e576020820181803683370190505b5090505b8415610def57610d736001836110b5565b9150610d80600a86611113565b610d8b906030611089565b60f81b818381518110610dae57634e487b7160e01b600052603260045260246000fd5b60200101907effffffffffffffffffffffffffffffffffffffffffffffffffffffffffffff1916908160001a905350610de8600a866110a1565b9450610d62565b949350505050565b600082601f830112610e07578081fd5b8135602067ffffffffffffffff80831115610e2457610e24611153565b8260051b604051601f19603f83011681018181108482111715610e4957610e49611153565b60405284815283810192508684018288018501891015610e67578687fd5b8692505b85831015610e89578035845292840192600192909201918401610e6b565b50979650505050505050565b600060208284031215610ea6578081fd5b81356001600160a01b0381168114610ebc578182fd5b9392505050565b600060208284031215610ed4578081fd5b813567ffffffffffffffff811115610eea578182fd5b610def84828501610df7565b60008060408385031215610f08578081fd5b823567ffffffffffffffff80821115610f1f578283fd5b610f2b86838701610df7565b93506020850135915080821115610f40578283fd5b50610f4d85828601610df7565b9150509250929050565b600060208284031215610f68578081fd5b81358015158114610ebc578182fd5b600060208284031215610f88578081fd5b5035919050565b600060208284031215610fa0578081fd5b5051919050565b7f746f6b656e496420617272617920636f6e7461696e732077726f6e6720746f6b81527f656e20696420617420696e646578206f662000000000000000000000000000006020820152600082516110058160328501602087016110cc565b9190910160320192915050565b6020808252825182820181905260009190848201906040850190845b8181101561104a5783518352928401929184019160010161102e565b50909695505050505050565b60208152600082518060208401526110758160408501602087016110cc565b601f01601f19169190910160400192915050565b6000821982111561109c5761109c611127565b500190565b6000826110b0576110b061113d565b500490565b6000828210156110c7576110c7611127565b500390565b60005b838110156110e75781810151838201526020016110cf565b838111156108cc5750506000910152565b600060001982141561110c5761110c611127565b5060010190565b6000826111225761112261113d565b500690565b634e487b7160e01b600052601160045260246000fd5b634e487b7160e01b600052601260045260246000fd5b634e487b7160e01b600052604160045260246000fdfea26469706673582212208019625505b175b86d64549c870db6197588a97f82af05a0a8a87645e4fa031164736f6c63430008040033",
  "linkReferences": {},
  "deployedLinkReferences": {}
}