{
  "_format": "hh-sol-artifact-1",
  "contractName": "MarketPlace",
  "sourceName": "contracts/MarketPlace.sol",
  "abi": [
    {
      "inputs": [
        {
          "internalType": "address",
          "name": "_owner",
          "type": "address"
        },
        {
          "internalType": "address",
          "name": "_nftAddress",
          "type": "address"
        },
        {
          "internalType": "bool",
          "name": "_canMint",
          "type": "bool"
        },
        {
          "internalType": "uint256",
          "name": "_basePrice",
          "type": "uint256"
        }
      ],
      "stateMutability": "nonpayable",
      "type": "constructor"
    },
    {
      "inputs": [],
      "name": "basePrice",
      "outputs": [
        {
          "internalType": "uint256",
          "name": "",
          "type": "uint256"
        }
      ],
      "stateMutability": "view",
      "type": "function"
    },
    {
      "inputs": [
        {
          "internalType": "uint256",
          "name": "",
          "type": "uint256"
        }
      ],
      "name": "boostedPrice",
      "outputs": [
        {
          "internalType": "uint256",
          "name": "",
          "type": "uint256"
        }
      ],
      "stateMutability": "view",
      "type": "function"
    },
    {
      "inputs": [],
      "name": "canMint",
      "outputs": [
        {
          "internalType": "bool",
          "name": "",
          "type": "bool"
        }
      ],
      "stateMutability": "view",
      "type": "function"
    },
    {
      "inputs": [
        {
          "internalType": "uint256[]",
          "name": "_tokenIDs",
          "type": "uint256[]"
        }
      ],
      "name": "getPrices",
      "outputs": [
        {
          "internalType": "uint256[]",
          "name": "",
          "type": "uint256[]"
        }
      ],
      "stateMutability": "view",
      "type": "function"
    },
    {
      "inputs": [
        {
          "internalType": "uint256",
          "name": "tokenId",
          "type": "uint256"
        }
      ],
      "name": "mint",
      "outputs": [
        {
          "internalType": "bool",
          "name": "",
          "type": "bool"
        }
      ],
      "stateMutability": "payable",
      "type": "function"
    },
    {
      "inputs": [],
      "name": "nft",
      "outputs": [
        {
          "internalType": "contract CryptoChitahs",
          "name": "",
          "type": "address"
        }
      ],
      "stateMutability": "view",
      "type": "function"
    },
    {
      "inputs": [],
      "name": "owner",
      "outputs": [
        {
          "internalType": "address payable",
          "name": "",
          "type": "address"
        }
      ],
      "stateMutability": "view",
      "type": "function"
    },
    {
      "inputs": [
        {
          "internalType": "uint256",
          "name": "_price",
          "type": "uint256"
        }
      ],
      "name": "setBasePrice",
      "outputs": [],
      "stateMutability": "nonpayable",
      "type": "function"
    },
    {
      "inputs": [
        {
          "internalType": "uint256[]",
          "name": "_tokenIDs",
          "type": "uint256[]"
        },
        {
          "internalType": "uint256[]",
          "name": "_boostedPrices",
          "type": "uint256[]"
        }
      ],
      "name": "setBoostedPrice",
      "outputs": [],
      "stateMutability": "nonpayable",
      "type": "function"
    },
    {
      "inputs": [
        {
          "internalType": "bool",
          "name": "_canMint",
          "type": "bool"
        }
      ],
      "name": "setMinting",
      "outputs": [],
      "stateMutability": "nonpayable",
      "type": "function"
    },
    {
      "inputs": [
        {
          "internalType": "address",
          "name": "_owner",
          "type": "address"
        }
      ],
      "name": "setOwner",
      "outputs": [],
      "stateMutability": "nonpayable",
      "type": "function"
    },
    {
      "inputs": [],
      "name": "totalMinted",
      "outputs": [
        {
          "internalType": "uint256",
          "name": "",
          "type": "uint256"
        }
      ],
      "stateMutability": "view",
      "type": "function"
    }
  ],
  "bytecode": "0x608060405234801561001057600080fd5b506040516110ea3803806110ea83398101604081905261002f91610096565b600080546001600160a01b039586166001600160a01b031990911617905560018054921515600160a01b026001600160a81b03199093169390941692909217179091556003556100e6565b80516001600160a01b038116811461009157600080fd5b919050565b600080600080608085870312156100ab578384fd5b6100b48561007a565b93506100c26020860161007a565b9250604085015180151581146100d6578283fd5b6060959095015193969295505050565b610ff5806100f56000396000f3fe6080604052600436106100c75760003560e01c8063a0712d6811610074578063beb9716d1161004e578063beb9716d14610230578063c7876ea414610251578063de4b32621461026757600080fd5b8063a0712d68146101d7578063a2309ff8146101fa578063b4c7f0661461021057600080fd5b806336f4be9a116100a557806336f4be9a1461014457806347ccca021461017f5780638da5cb5b146101b757600080fd5b806309cb3a4e146100cc57806313af40351461010257806314cbae1414610124575b600080fd5b3480156100d857600080fd5b506100ec6100e7366004610d19565b610287565b6040516100f99190610e68565b60405180910390f35b34801561010e57600080fd5b5061012261011d366004610ceb565b6104c2565b005b34801561013057600080fd5b5061012261013f366004610d4c565b610561565b34801561015057600080fd5b5061017161015f366004610dcd565b60046020526000908152604090205481565b6040519081526020016100f9565b34801561018b57600080fd5b5060015461019f906001600160a01b031681565b6040516001600160a01b0390911681526020016100f9565b3480156101c357600080fd5b5060005461019f906001600160a01b031681565b6101ea6101e5366004610dcd565b61081b565b60405190151581526020016100f9565b34801561020657600080fd5b5061017160025481565b34801561021c57600080fd5b5061012261022b366004610dad565b6109ef565b34801561023c57600080fd5b506001546101ea90600160a01b900460ff1681565b34801561025d57600080fd5b5061017160035481565b34801561027357600080fd5b50610122610282366004610dcd565b610a8d565b60606000600160009054906101000a90046001600160a01b03166001600160a01b03166318160ddd6040518163ffffffff1660e01b815260040160206040518083038186803b1580156102d957600080fd5b505afa1580156102ed573d6000803e3d6000fd5b505050506040513d601f19601f820116820180604052508101906103119190610de5565b9050808351111561037b5760405162461bcd60e51b815260206004820152602960248201527f746f6b656e494420617272617920697320626967676572207468616e20746f74604482015268616c20737570706c7960b81b60648201526084015b60405180910390fd5b6000835167ffffffffffffffff8111156103a557634e487b7160e01b600052604160045260246000fd5b6040519080825280602002602001820160405280156103ce578160200160208202803683370190505b50905060005b84518110156104ba5760008582815181106103ff57634e487b7160e01b600052603260045260246000fd5b602002602001015190506000811180156104195750838111155b61042283610af7565b6040516020016104329190610dfd565b6040516020818303038152906040529061045f5760405162461bcd60e51b81526004016103729190610eac565b5060035460008281526004602052604090205461047c9190610edf565b83838151811061049c57634e487b7160e01b600052603260045260246000fd5b602090810291909101015250806104b281610f4e565b9150506103d4565b509392505050565b6000546001600160a01b031633146105275760405162461bcd60e51b815260206004820152602260248201527f4f6e6c79206f776e65722063616e20706572666f726d2074686973206163746960448201526137b760f11b6064820152608401610372565b600080547fffffffffffffffffffffffff0000000000000000000000000000000000000000166001600160a01b0392909216919091179055565b6000546001600160a01b031633146105c65760405162461bcd60e51b815260206004820152602260248201527f4f6e6c79206f776e65722063616e20706572666f726d2074686973206163746960448201526137b760f11b6064820152608401610372565b805182511461063d5760405162461bcd60e51b815260206004820152603560248201527f746f6b656e49447320616e6420626f6f7374656450726963657320617272617960448201527f206c656e67746820646f65736e2774206d6174636800000000000000000000006064820152608401610372565b600154604080517f18160ddd00000000000000000000000000000000000000000000000000000000815290516000926001600160a01b0316916318160ddd916004808301926020929190829003018186803b15801561069b57600080fd5b505afa1580156106af573d6000803e3d6000fd5b505050506040513d601f19601f820116820180604052508101906106d39190610de5565b905080835111156107385760405162461bcd60e51b815260206004820152602960248201527f746f6b656e494420617272617920697320626967676572207468616e20746f74604482015268616c20737570706c7960b81b6064820152608401610372565b60005b835181101561081557600084828151811061076657634e487b7160e01b600052603260045260246000fd5b60200260200101519050600084838151811061079257634e487b7160e01b600052603260045260246000fd5b602002602001015190506000821180156107ac5750838211155b6107b584610af7565b6040516020016107c59190610dfd565b604051602081830303815290604052906107f25760405162461bcd60e51b81526004016103729190610eac565b50600091825260046020526040909120558061080d81610f4e565b91505061073b565b50505050565b600154600090600160a01b900460ff166108775760405162461bcd60e51b815260206004820152601660248201527f4d696e74696e67206973206e6f742073746172746564000000000000000000006044820152606401610372565b6000828152600460205260408120546003546108939190610edf565b90508034146108e45760405162461bcd60e51b815260206004820152600f60248201527f496e636f727265637420707269636500000000000000000000000000000000006044820152606401610372565b6001546040517f40c10f19000000000000000000000000000000000000000000000000000000008152336004820152602481018590526001600160a01b03909116906340c10f1990604401602060405180830381600087803b15801561094957600080fd5b505af115801561095d573d6000803e3d6000fd5b505050506040513d601f19601f820116820180604052508101906109819190610de5565b50600080546040516001600160a01b03909116913480156108fc02929091818181858888f193505050501580156109bc573d6000803e3d6000fd5b50600083815260046020526040812081905560028054600192906109e1908490610edf565b909155506001949350505050565b6000546001600160a01b03163314610a545760405162461bcd60e51b815260206004820152602260248201527f4f6e6c79206f776e65722063616e20706572666f726d2074686973206163746960448201526137b760f11b6064820152608401610372565b60018054911515600160a01b027fffffffffffffffffffffff00ffffffffffffffffffffffffffffffffffffffff909216919091179055565b6000546001600160a01b03163314610af25760405162461bcd60e51b815260206004820152602260248201527f4f6e6c79206f776e65722063616e20706572666f726d2074686973206163746960448201526137b760f11b6064820152608401610372565b600355565b606081610b3757505060408051808201909152600181527f3000000000000000000000000000000000000000000000000000000000000000602082015290565b8160005b8115610b615780610b4b81610f4e565b9150610b5a9050600a83610ef7565b9150610b3b565b60008167ffffffffffffffff811115610b8a57634e487b7160e01b600052604160045260246000fd5b6040519080825280601f01601f191660200182016040528015610bb4576020820181803683370190505b5090505b8415610c4557610bc9600183610f0b565b9150610bd6600a86610f69565b610be1906030610edf565b60f81b818381518110610c0457634e487b7160e01b600052603260045260246000fd5b60200101907effffffffffffffffffffffffffffffffffffffffffffffffffffffffffffff1916908160001a905350610c3e600a86610ef7565b9450610bb8565b949350505050565b600082601f830112610c5d578081fd5b8135602067ffffffffffffffff80831115610c7a57610c7a610fa9565b8260051b604051601f19603f83011681018181108482111715610c9f57610c9f610fa9565b60405284815283810192508684018288018501891015610cbd578687fd5b8692505b85831015610cdf578035845292840192600192909201918401610cc1565b50979650505050505050565b600060208284031215610cfc578081fd5b81356001600160a01b0381168114610d12578182fd5b9392505050565b600060208284031215610d2a578081fd5b813567ffffffffffffffff811115610d40578182fd5b610c4584828501610c4d565b60008060408385031215610d5e578081fd5b823567ffffffffffffffff80821115610d75578283fd5b610d8186838701610c4d565b93506020850135915080821115610d96578283fd5b50610da385828601610c4d565b9150509250929050565b600060208284031215610dbe578081fd5b81358015158114610d12578182fd5b600060208284031215610dde578081fd5b5035919050565b600060208284031215610df6578081fd5b5051919050565b7f746f6b656e496420617272617920636f6e7461696e732077726f6e6720746f6b81527f656e20696420617420696e646578206f66200000000000000000000000000000602082015260008251610e5b816032850160208701610f22565b9190910160320192915050565b6020808252825182820181905260009190848201906040850190845b81811015610ea057835183529284019291840191600101610e84565b50909695505050505050565b6020815260008251806020840152610ecb816040850160208701610f22565b601f01601f19169190910160400192915050565b60008219821115610ef257610ef2610f7d565b500190565b600082610f0657610f06610f93565b500490565b600082821015610f1d57610f1d610f7d565b500390565b60005b83811015610f3d578181015183820152602001610f25565b838111156108155750506000910152565b6000600019821415610f6257610f62610f7d565b5060010190565b600082610f7857610f78610f93565b500690565b634e487b7160e01b600052601160045260246000fd5b634e487b7160e01b600052601260045260246000fd5b634e487b7160e01b600052604160045260246000fdfea2646970667358221220c7101d98775893143973d443f193914a68a0e7a96f35d6f49a6aa31038598b0964736f6c63430008040033",
  "linkReferences": {},
  "deployedLinkReferences": {}
}